:100000000EC213C212C211C210C20FC20EC20DC262
:100010000CC20BC20AC209C208C207C206C2000053
:1000200000000000000000000000000000000000D0
:1000300000000000000000000000000000000000C0
:1000400000000000000000000000000400040000A8
:10005000040000007E45457D007C40407C00047C1F
:10006000444400FC44447C003C54545C0038444408
:100070003804040404FC000000000000000000003C
:100080000000000000000000000000000000000070
:100090000000000000000000000000000000000060
:1000A0000000000000000000000000000000000050
:1000B000000000000000700808C828202808082058
:1000C0002828082820282808282028080820282848
:1000D0000828202828082820280808202828082A56
:1000E0002028280B28202808082020280828202835
:1000F000280828202829082020280808202828083F
:1001000028202828082020280808202030104040D7
:100110006040808000000000000000000000BC047F
:1001200004E014D4D4C0D4D4D4C0C4D4D4D0C4C46F
:10013000D4D0D4C4D4D0D7D0C0DDC0C0C0FFFFFF5E
:10014000FFFFFFFFFFFFFFFFFFFFFFFFFFFFFFFFBF
:10015000FFFFFFFFFFFFFFFFFFFFFFFFFFFFFFFFAF
:10016000FFFFFFFFFFFFFFFFFFFFFFFFFFFFFFFF9F
:10017000FFFFFFFFFFFFFFFFFFFFFFFFFFFFFFFF8F
:10018000000000FFFFFFFFFFFFFFFFFFFFFFFFFF7C
:10019000FFFEFEFFFFFEFCFCF8F0E0C00000FB00ED
:1001A00000DE00FFFFFFFF0101010101010101E18C
:1001B000E1E1E1E1010101010101010101FFFFFFB5
:1001C000FFFFFFFFFFFFFFFFFFFFFFFFFFFFFFFF3F
:1001D000FFFFFFFFFF7F7F7F7F7F7F7F7FFFFFFF2F
:1001E000FFFFFFFFFFFF7F7F7F7F7F7FFFFFFFFF1F
:1001F0007F7F7FFFFFFFFFFFFF7F7F7F7F7F7FFF8F
:10020000000000FFFFFFFFFFFFFFFFFFFFFFFFFFFB
:10021000FFFFFFFFFFFFFFFFFFFFFFFFFFFC7E0071
:1002200000DD00FFFFFFFF00000000000000000FE6
:100230000F0F0F0F000000000000000000FFFFFF85
:10024000FFFFFFFFFFFFFFFFFFFFFFFFFFFFFFFFBE
:100250001F0301F0F8FCFCFEFEFEFCFCF8F00101BF
:10026000071FFFE3C0800C9C1E3E3C7878F9FFFF1F
:10027000000000FFFFFF830100387CFEFEFEFC7CD7
:10028000000000FFFFFFFFFFFFFFFFFFFFFFFFFF7B
:10029000FFFFFFFFFFFFFFFFFFFFFFFFFFFF7700F5
:1002A00000DD00FFFFFFFF00000000000000007EF7
:1002B0007E7E7E7E000000000000000000FFFFFF49
:1002C000FFFFFFFFFFFFFFFFFFFFFFFFFFFFFFFF3E
:1002D000FFF8F0E1E3C7C7CFCFCFC7C7C3E1F0F066
:1002E000FCFFFFFFF3E3C3C7CFCEC0C0E0F9FFFFC1
:1002F000C0C0C0FFFFFFFFFEFEFCFCFCFCFCFCFEE0
:10030000FEFCFCFFFFFFFFFFFFFFFFFFFFFFFFFF04
:10031000FFFFFFFFFFFFFFFFFFFFFFFFFFFF0700E4
:10032000041D103F3F3F3F383838383838383838A8
:1003300038383838383838383838383838FFFFFFE8
:10034000FFFFFFFFFFFFFFFFFFFFFFFFFFFFFFFFBD
:10035000FFFFFFFFFFFFFFFFFFFFFFFFFFFFFFFFAD
:10036000FFFFFFFFFFFFFFFFFFFFFFFFFFFFFFFF9D
:10037000FFFFFFFFFFFFFFFFFFFFFFFFFFFFFFFF8D
:10038000FFFFFFFFFFFFFFFFFFFFFFFFFFFFFFFF7D
:10039000FFFFFFFFFFFFFFFFFFFF7F3F0F03000097
:1003A000000000000000000000000000000000004D
:1003B000000000000000000000000000000F0F0F10
:1003C0000F0F0F0F0F0F0F0F0F0F0F0F0F0F0F0F3D
:1003D0000F0F0F0F0F0F0F0F0F0F0F0F0F0F0F0F2D
:1003E0000F0F0F0F0F0F0F0F0F0F0F0F0F0F0F0F1D
:1003F0000F0F0F0F0F0F0F0F0F0F0F0F0F0F0F0F0D
:100400000F0F0F0F0F0F0F0F0F0F0F0F0F0F0F0FFC
:100410000F0F07070703030101000000000011246C
:100420001FBECFEDCDBF12D08AC0EACD98E087FFC6
:1004300002C0C09A01C0C098C29A880FC298915059
:10044000B1F70895C398F2DFC39A0895CF93DF936D
:1004500087B38F6187BBC098C298C19AC49AC39A68
:1004600089EF90E00197F1F700C00000C198E3EC3C
:10047000F9E03197F1F700C00000C19A89EF90E0F0
:100480000197F1F700C00000C4988EEADBDF85ED2C
:10049000D9DF80E8D7DF88EAD5DF8FE3D3DF83EDCC
:1004A000D1DF80E0CFDF80E4CDDF8DE8CBDF84E1FA
:1004B000C9DF80E2C7DF80E0C5DF81EAC3DF88EC07
:1004C000C1DF8AEDBFDF82E1BDDF81E8BBDF8FECFA
:1004D000B9DF89EDB7DF81EFB5DF8BEDB3DF80E406
:1004E000B1DF84EAAFDF86EAADDF8FEAABDF81E21E
:1004F000A9DF80E0A7DF8FE7A5DF82E2A3DF80E04E
:10050000A1DF87E09FDFC49AC398CEE1D0E0FE016F
:1005100084918CDF2196F4E0CE31DF07C1F7C39AD6
:100520002FE382E49FE0215080409040E1F700C03B
:10053000000017BA80E090E0DF91CF910895F89421
:02054000FFCFEB
:00000001FF
